0887037110920230831980000000        00000000000+887RETENCIONES +1 DIA                           S2023083100008
0887037110920230831970000000        00000000000+887RETENCIONES 1 DIA                            S2023083100008
0887037110920230831990000000        00000520860+887SALDO CONTABLE                               S2023083100008
08870371109202308011000019000000000000000089981+994TRASPASO A:Bodegas San Francisco L           C2023083100008
08870371109202308023812034000000000000000392852+000Pago Instituciones Previsionales             C2023083100008
08870371109202308031000018000000000000001503440+994TRASPASO A:Ruth Noemi Salas Anabal           C2023083100008
08870371109202308035600092000000000000001110487+994TRASPASO DE:Inversiones Fenix Serv           A2023083100008
08870371109202308073812041000000000000000023008+000PAGO EN SII.CL*                              C2023083100008
08870371109202308091000018000000000000000235665+994TRASPASO A:Ruth Noemi Salas Anabal           C2023083100008
08870371109202308095600092000000000000000085786+994TRASPASO DE:Julio Ruben Gutierrez            A2023083100008
08870371109202308095800444000000000000000660431+000PAGO:PROVEEDORES 0799502801                  A2023083100008
08870371109202308101000018000000000000000665924+994TRASPASO A:Ruth Noemi Salas Anabal           C2023083100008
08870371109202308101800018000000000000000043558+000PAGO AUTOMATICO TARJETA DE CREDITO           C2023083100008
08870371109202308115800444000000000000000220728+000PAGO:PROVEEDORES 0764496213                  A2023083100008
08870371109202308115800444000000000000003546780+000PAGO:PROVEEDORES 0760988200                  A2023083100008
08870371109202308161000019000000000000000238000+994TRASPASO A:General Repair Spa                C2023083100008
08870371109202308161000019000000000000000154700+994TRASPASO A:Transportes Guerrero Hu           C2023083100008
08870371109202308161000019000000000000000107100+994TRASPASO A:General Repair Spa                C2023083100008
08870371109202308161000019000000000000000154700+994TRASPASO A:Transportes Guerrero Hu           C2023083100008
08870371109202308165800444000000000000000858930+000PAGO:PROVEEDORES 0816756006                  A2023083100008
08870371109202308181000018000000000000001765826+994TRASPASO A:General Alquiler de Maq           C2023083100008
08870371109202308185800444000000000000000313623+000PAGO:PROVEEDORES 0769938591                  A2023083100008
08870371109202308185800444000000000000001062662+000PAGO:PROVEEDORES 0760988200                  A2023083100008
08870371109202308211000019000000000000000535500+994TRASPASO A:Constructora Hualane              C2023083100008
08870371109202308211000019000000000000000737800+994TRASPASO A:Constructora Hualane              C2023083100008
08870371109202308214000344000000000000001491210+130Pago Cuota Leasing:Cuota 12 de 31            C2023083100008
08870371109202308251000018000000000000000665924+994TRASPASO A:Comercial e Industrial            C2023083100008
08870371109202308284000344000000000000001604916+130Pago Cuota Leasing:Cuota 5 de 49             C2023083100008
08870371109202308313000011000000000000007572949+887PAGO DE CREDITO EN CUOTAS                    C2023083100008
08870371109202308317300030000000000000001900000+994TRASPASO DE:JOSE LUIS ILLANES GURI           A2023083100008
08870371109202308317300030000000000000003800000+994TRASPASO DE:ECOX SPA                         A2023083100008
