0887037110920231031980000000        00000000000+887RETENCIONES +1 DIA                           S2023103100010
0887037110920231031970000000        00000000000+887RETENCIONES 1 DIA                            S2023103100010
0887037110920231031990000000        00004246612+887SALDO CONTABLE                               S2023103100010
08870371109202310023812034000000000000000434926+000Pago Instituciones Previsionales             C2023103100010
08870371109202310021000019000000000000000261800+994TRASPASO A:Constructora Hualane              C2023103100010
08870371109202310021000019000000000000000059500+994TRASPASO A:Transportes Guerrero Hu           C2023103100010
08870371109202310021000018000000000000000083300+994TRASPASO A:Servicios de Grua Crist           C2023103100010
08870371109202310021000019000000000000000755650+994TRASPASO A:Constructora Hualane              C2023103100010
08870371109202310021000018000000000000000047600+994TRASPASO A:Servicios de Grua Crist           C2023103100010
08870371109202310021000018000000000000001557564+994TRASPASO A:Ruth Noemi Salas Anabal           C2023103100010
08870371109202310035600092000000000000001254070+994TRASPASO DE:Inversiones Fenix Serv           A2023103100010
08870371109202310035800444000000000000000514946+000PAGO:PROVEEDORES 0799502801                  A2023103100010
08870371109202310041000018000000000000001785000+994TRASPASO A:Patricio Rocco Inves?ub           C2023103100010
08870371109202310051000018000000000000000047600+994TRASPASO A:Servicios de Grua Crist           C2023103100010
08870371109202310051000018000000000000000164220+994TRASPASO A:Alfredo Silvio Donoso R           C2023103100010
08870371109202310063812041000000000000000032082+000PAGO EN SII.CL*                              C2023103100010
08870371109202310117300030000000000000000171693+994TRASPASO DE:SERVICIOS INTEGRALES L           A2023103100010
08870371109202310121000019000000000000000092110+994TRASPASO A:Bodegas San Francisco L           C2023103100010
08870371109202310121800018000000000000000012541+000PAGO AUTOMATICO TARJETA DE CREDITO           C2023103100010
08870371109202310121000018000000000000000238000+994TRASPASO A:Patricio Rocco Inves?ub           C2023103100010
08870371109202310131000018000000000000001190000+994TRASPASO A:Patricio Rocco Inves?ub           C2023103100010
08870371109202310135800444000000000000000260604+000PAGO:PROVEEDORES 0764496213                  A2023103100010
08870371109202310135800444000000000000001779000+000PAGO:PROVEEDORES 0789241007                  A2023103100010
08870371109202310135800444000000000000004271264+000PAGO:PROVEEDORES 0760988200                  A2023103100010
08870371109202310165800444000000000000000859790+000PAGO:PROVEEDORES 0816756006                  A2023103100010
08870371109202310181000019000000000000000166600+994TRASPASO A:Constructora Hualane              C2023103100010
08870371109202310181000018000000000000000047600+994TRASPASO A:Servicios de Grua Crist           C2023103100010
08870371109202310181000018000000000000000047600+994TRASPASO A:Servicios de Grua Crist           C2023103100010
08870371109202310181000018000000000000000047600+994TRASPASO A:Servicios de Grua Crist           C2023103100010
08870371109202310181000018000000000000000071400+994TRASPASO A:Servicios de Grua Crist           C2023103100010
08870371109202310205800444000000000000000474399+000PAGO:PROVEEDORES 0760988200                  A2023103100010
08870371109202310234000344000000000000001491210+130Pago Cuota Leasing:Cuota 14 de 31            C2023103100010
08870371109202310234000344000000000000000494464+130Pago Cuota Leasing:Cuota 3 de 49             C2023103100010
08870371109202310247300030000000000000000257650+994TRASPASO DE:REDCODE SPA                      A2023103100010
08870371109202310304000344000000000000001604916+130Pago Cuota Leasing:Cuota 7 de 49             C2023103100010
