0887037110920231130980000000        00000000000+887RETENCIONES +1 DIA                           S2023113000011
0887037110920231130970000000        00000000000+887RETENCIONES 1 DIA                            S2023113000011
0887037110920231130990000000        00003881089+887SALDO CONTABLE                               S2023113000011
08870371109202311023812041000000000000000023704+000PAGO EN SII.CL*                              C2023113000011
08870371109202311021000018000000000000001463089+994TRASPASO A:Ruth Noemi Salas Anabal           C2023113000011
08870371109202311026100000000484010700000077536+195DEPOSITO CON CHEQUE MISMO BANCO              A2023113000011
08870371109202311031000018000000000000000976784+994TRASPASO A:General Alquiler de Maq           C2023113000011
08870371109202311033812034000000000000000380842+000Pago Instituciones Previsionales             C2023113000011
08870371109202311031000018000000000000000053550+994TRASPASO A:Servicios de Grua Crist           C2023113000011
08870371109202311031000019000000000000000097338+994TRASPASO A:Bodegas San Francisco L           C2023113000011
08870371109202311065600092000000000000001105631+994TRASPASO DE:Inversiones Fenix Serv           A2023113000011
08870371109202311105800444000000000000000230756+000PAGO:PROVEEDORES 0760988200                  A2023113000011
08870371109202311141800018000000000000000252785+000PAGO AUTOMATICO TARJETA DE CREDITO           C2023113000011
08870371109202311155800444000000000000000861502+000PAGO:PROVEEDORES 0816756006                  A2023113000011
08870371109202311175800444000000000000000714480+000PAGO:PROVEEDORES 0764496213                  A2023113000011
08870371109202311175800444000000000000005538244+000PAGO:PROVEEDORES 0760988200                  A2023113000011
08870371109202311201000018000000000000000047600+994TRASPASO A:Servicios de Grua Crist           C2023113000011
08870371109202311201000018000000000000000053550+994TRASPASO A:Servicios de Grua Crist           C2023113000011
08870371109202311201000018000000000000000083300+994TRASPASO A:Servicios de Grua Crist           C2023113000011
08870371109202311214000344000000000000001491210+130Pago Cuota Leasing:Cuota 15 de 31            C2023113000011
08870371109202311224000344000000000000000494464+130Pago Cuota Leasing:Cuota 4 de 49             C2023113000011
08870371109202311245800444000000000000001384540+000PAGO:PROVEEDORES 0760988200                  A2023113000011
08870371109202311274000344000000000000001604916+130Pago Cuota Leasing:Cuota 8 de 49             C2023113000011
08870371109202311281000018000000000000001368488+994TRASPASO A:General Alquiler de Maq           C2023113000011
08870371109202311301000018000000000000001498458+994TRASPASO A:Ruth Noemi Salas Anabal           C2023113000011
08870371109202311303812034000000000000000388134+000Pago Instituciones Previsionales             C2023113000011
