0887037110920230428980000000        00000000000+887RETENCIONES +1 DIA                           S2023042800004
0887037110920230428970000000        00000000000+887RETENCIONES 1 DIA                            S2023042800004
0887037110920230428990000000        00000742747+887SALDO CONTABLE                               S2023042800004
08870371109202304031000018000000000000001500000+994TRASPASO A:Ruth Noemi Salas Anabal           C2023042800004
08870371109202304043812034000000000000000378874+000Pago Instituciones Previsionales             C2023042800004
08870371109202304045600092000000000000000939437+994TRASPASO DE:Inversiones Fenix Serv           A2023042800004
08870371109202304061000019000000000000000111157+994TRASPASO A:Bodegas San Francisco L           C2023042800004
08870371109202304121000019000000000000000071400+994TRASPASO A:General Repair Spa                C2023042800004
08870371109202304121000019000000000000000178500+994TRASPASO A:General Repair Spa                C2023042800004
08870371109202304131800018000000000000000010844+000PAGO AUTOMATICO TARJETA DE CREDITO           C2023042800004
08870371109202304133812041000000000000000257862+000PAGO EN SII.CL*                              C2023042800004
08870371109202304141000018000000000000001371665+994TRASPASO A:General Alquiler de Maq           C2023042800004
08870371109202304145800444000000000000000699092+000PAGO:PROVEEDORES 0760988200                  A2023042800004
08870371109202304175800444000000000000000845131+000PAGO:PROVEEDORES 0816756006                  A2023042800004
08870371109202304191000019000000000000000462666+994TRASPASO A:Motorman S.a.                     C2023042800004
08870371109202304215800444000000000000000932495+000PAGO:PROVEEDORES 0789241007                  A2023042800004
08870371109202304215800444000000000000001374189+000PAGO:PROVEEDORES 0760988200                  A2023042800004
08870371109202304215800444000000000000000245773+000PAGO:PROVEEDORES 0764496213                  A2023042800004
08870371109202304244000344000000000000001493854+130Pago Cuota Leasing Numero:00000000           C2023042800004
08870371109202304261000018000000000000000357211+994TRASPASO A:Servicios Profesionales           C2023042800004
08870371109202304281000019000000000000000559300+994TRASPASO A:General Repair Spa                C2023042800004
08870371109202304281000018000000000000000733040+994TRASPASO A:General Alquiler de Maq           C2023042800004
08870371109202304283812041000000000000000009358+000PAGO EN SII.CL*                              C2023042800004
