0887037110920230731980000000        00000000000+887RETENCIONES +1 DIA                           S2023073100007
0887037110920230731970000000        00000000000+887RETENCIONES 1 DIA                            S2023073100007
0887037110920230731990000000        00004944486+887SALDO CONTABLE                               S2023073100007
08870371109202307061000019000000000000000091954+994TRASPASO A:Bodegas San Francisco L           C2023073100007
08870371109202307061000019000000000000000160650+994TRASPASO A:General Repair Spa                C2023073100007
08870371109202307061000019000000000000000059500+994TRASPASO A:Transportes Guerrero Hu           C2023073100007
08870371109202307061000019000000000000000238000+994TRASPASO A:General Repair Spa                C2023073100007
08870371109202307067300030000000000000000250000+994TRASPASO DE:FELIPE ANDRES HIRIART            A2023073100007
08870371109202307071000018000000000000000071400+994TRASPASO A:Servicios de Grua Crist           C2023073100007
08870371109202307077300030000000000000000250000+994TRASPASO DE:JOSE LUIS ILLANES GURI           A2023073100007
08870371109202307075600092000000000000000500000+994TRASPASO DE:Inversiones Majo Spa             A2023073100007
08870371109202307077300030000000000000000250000+994TRASPASO DE:PEDRO JOSE LECAROS SOT           A2023073100007
08870371109202307107300030000000000000000250000+994TRASPASO DE:FELIPE ANDRES HIRIART            A2023073100007
08870371109202307107300030000000000000000250000+994TRASPASO DE:PEDRO JOSE LECAROS SOT           A2023073100007
08870371109202307107300030000000000000000084465+994TRASPASO DE:COMERCIAL TEMPEL CHILE           A2023073100007
08870371109202307107300030000000000000000250000+994TRASPASO DE:JOSE LUIS ILLANES GURI           A2023073100007
08870371109202307111000019000000000000002000000+994TRASPASO A:General Repair Spa                C2023073100007
08870371109202307123812041000000000000000023570+000PAGO EN SII.CL*                              C2023073100007
08870371109202307123812034000000000000000381681+000Pago Instituciones Previsionales             C2023073100007
08870371109202307125600092000000000000001098339+994TRASPASO DE:Inversiones Fenix Serv           A2023073100007
08870371109202307127300030000000000000000238000+994TRASPASO DE:NETLAND CHILE SA                 A2023073100007
08870371109202307131000019000000000000000071880+994TRASPASO A:Prox Services Spa                 C2023073100007
08870371109202307131800018000000000000000125641+000PAGO AUTOMATICO TARJETA DE CREDITO           C2023073100007
08870371109202307145800444000000000000004085683+000PAGO:PROVEEDORES 0760988200                  A2023073100007
08870371109202307187300030000000000000000085885+994TRASPASO DE:REDCODE SPA                      A2023073100007
08870371109202307195800444000000000000000171706+000PAGO:SANTANDER 0770575273                    A2023073100007
08870371109202307201000018000000000000000083300+994TRASPASO A:Servicios de Grua Crist           C2023073100007
08870371109202307214000344000000000000001491210+130Pago Cuota Leasing:Cuota 11 de 31            C2023073100007
08870371109202307215800444000000000000000705241+000PAGO:PROVEEDORES 0760988200                  A2023073100007
08870371109202307251000018000000000000000603820+994TRASPASO A:Ahern Chile Spa                   C2023073100007
08870371109202307265800444000000000000000464100+000PAGO:PROVEEDORES 0760566306                  A2023073100007
08870371109202307274000344000000000000001604916+130Pago Cuota Leasing:Cuota 4 de 49             C2023073100007
08870371109202307285800444000000000000000160650+000PAGO:PROVEEDORES 0760988200                  A2023073100007
08870371109202307315800444000000000000000857500+000PAGO:PROVEEDORES 0816756006                  A2023073100007
