0887037110920230531980000000        00000000000+887RETENCIONES +1 DIA                           S2023053100005
0887037110920230531970000000        00000000000+887RETENCIONES 1 DIA                            S2023053100005
0887037110920230531990000000        00004803018+887SALDO CONTABLE                               S2023053100005
08870371109202305021000018000000000000000095200+994TRASPASO A:Gruas Brigmann Y Parada           C2023053100005
08870371109202305023000051000000000000014089600+887PAGOS DE LEASING *                           C2023053100005
08870371109202305021000018000000000000001500000+994TRASPASO A:Ruth Noemi Salas Anabal           C2023053100005
08870371109202305023812034000000000000000380800+000Pago Instituciones Previsionales             C2023053100005
08870371109202305025600092000000000000000350000+994TRASPASO DE:Jose Miguel Parro Flux           A2023053100005
08870371109202305025800444000000000000015000000+000PAGO:INVERSIONES 0965712208                  A2023053100005
08870371109202305025600092000000000000001400000+994TRASPASO DE:Jose Miguel Parro                A2023053100005
08870371109202305027300030000000000000000034713+994TRASPASO DE:RUTH NOEMI SALAS ANABA           A2023053100005
08870371109202305033812041000000000000000022654+000PAGO EN SII.CL*                              C2023053100005
08870371109202305033812041000000000000000023825+000PAGO EN SII.CL*                              C2023053100005
08870371109202305033812041000000000000000022852+000PAGO EN SII.CL*                              C2023053100005
08870371109202305033812041000000000000000017673+000PAGO EN SII.CL*                              C2023053100005
08870371109202305035600092000000000000000923044+994TRASPASO DE:Inversiones Fenix Serv           A2023053100005
08870371109202305103812041000000000000000025008+000PAGO EN SII.CL*                              C2023053100005
08870371109202305111800018000000000000000215314+000PAGO AUTOMATICO TARJETA DE CREDITO           C2023053100005
08870371109202305117300030000000000000000230091+994TRASPASO DE:INVERSIONES POLONIA SA           A2023053100005
08870371109202305121000019000000000000001750000+994TRASPASO A:Jose Miguel Parro                 C2023053100005
08870371109202305121000019000000000000000300000+994TRASPASO A:Marcelo Alarcon Ciudad            C2023053100005
08870371109202305127300030000000000000000757380+994TRASPASO DE:SERVICIOS INTEGRALES L           A2023053100005
08870371109202305125600092000000000000000144796+994TRASPASO DE:Fyp Inversiones Spa              A2023053100005
08870371109202305127300030000000000000000254009+994TRASPASO DE:SERVICIOS INTEGRALES L           A2023053100005
08870371109202305127300030000000000000000665240+994TRASPASO DE:SERVICIOS INTEGRALES L           A2023053100005
08870371109202305171000019000000000000000462666+994TRASPASO A:Motorman S.a.                     C2023053100005
08870371109202305195800444000000000000000792940+000PAGO:PROVEEDORES 0764496213                  A2023053100005
08870371109202305195800444000000000000000140738+000PAGO:PROVEEDORES 0789241007                  A2023053100005
08870371109202305195800444000000000000003826225+000PAGO:PROVEEDORES 0760988200                  A2023053100005
08870371109202305224000344000000000000001491210+130Pago Cuota Leasing Numero:00000000           C2023053100005
08870371109202305245800444000000000000002494367+000PAGO:INVERSIONES 0965712208                  A2023053100005
08870371109202305261000019000000000000000523600+994TRASPASO A:Transportes Guerrero Hu           C2023053100005
08870371109202305261000019000000000000000238000+994TRASPASO A:General Repair Spa                C2023053100005
08870371109202305261000019000000000000000238000+994TRASPASO A:Transportes Guerrero Hu           C2023053100005
08870371109202305261000019000000000000000108221+994TRASPASO A:Bodegas San Francisco L           C2023053100005
08870371109202305261000019000000000000000238000+994TRASPASO A:General Repair Spa                C2023053100005
08870371109202305261000019000000000000000238000+994TRASPASO A:General Repair Spa                C2023053100005
08870371109202305261000019000000000000000119000+994TRASPASO A:Transportes Guerrero Hu           C2023053100005
08870371109202305261000019000000000000000238000+994TRASPASO A:General Repair Spa                C2023053100005
08870371109202305265800444000000000000000025289+000PAGO:PROVEEDORES 0760988200                  A2023053100005
08870371109202305265800444000000000000000117282+000PAGO:PROVEEDORES 0789241007                  A2023053100005
08870371109202305294000344000000000000001604916+130Pago Cuota Leasing Numero:00000000           C2023053100005
08870371109202305305800444000000000000000846696+000PAGO:PROVEEDORES 0816756006                  A2023053100005
