0887037110920230630980000000        00000000000+887RETENCIONES +1 DIA                           S2023063000006
0887037110920230630970000000        00000000000+887RETENCIONES 1 DIA                            S2023063000006
0887037110920230630990000000        00002000439+887SALDO CONTABLE                               S2023063000006
08870371109202306011000018000000000000001464496+994TRASPASO A:Ruth Noemi Salas Anabal           C2023063000006
08870371109202306013812034000000000000000381481+000Pago Instituciones Previsionales             C2023063000006
08870371109202306057300030000000000000000204750+994TRASPASO DE:PAULINA ELENA JANA AVI           A2023063000006
08870371109202306061000018000000000000000020000+994TRASPASO A:Rieutord Alvarado Andre           C2023063000006
08870371109202306071000018000000000000000020000+994TRASPASO A:Rieutord Alvarado Andre           C2023063000006
08870371109202306075600092000000000000001098357+994TRASPASO DE:Inversiones Fenix Serv           A2023063000006
08870371109202306095800444000000000000000825486+000PAGO:PROVEEDORES 0764496213                  A2023063000006
08870371109202306123812041000000000000000027840+000PAGO EN SII.CL*                              C2023063000006
08870371109202306121000019000000000000000096707+994TRASPASO A:Bodegas San Francisco L           C2023063000006
08870371109202306121000018000000000000001335744+994TRASPASO A:General Alquiler de Maq           C2023063000006
08870371109202306121000018000000000000001081710+994TRASPASO A:General Alquiler de Maq           C2023063000006
08870371109202306121000019000000000000000119000+994TRASPASO A:Transportes Guerrero Hu           C2023063000006
08870371109202306121000018000000000000000449236+994TRASPASO A:General Alquiler de Maq           C2023063000006
08870371109202306121000019000000000000000071400+994TRASPASO A:General Repair Spa                C2023063000006
08870371109202306121000018000000000000000222530+994TRASPASO A:Endura Motor Eirl                 C2023063000006
08870371109202306121000018000000000000000340340+994TRASPASO A:General Alquiler de Maq           C2023063000006
08870371109202306121000018000000000000000276361+994TRASPASO A:General Alquiler de Maq           C2023063000006
08870371109202306131800018000000000000000209101+000PAGO AUTOMATICO TARJETA DE CREDITO           C2023063000006
08870371109202306165800444000000000000001283939+000PAGO:PROVEEDORES 0760988200                  A2023063000006
08870371109202306224000344000000000000001491210+130Pago Cuota Leasing Numero:00000000           C2023063000006
08870371109202306235800444000000000000002577525+000PAGO:PROVEEDORES 0760988200                  A2023063000006
08870371109202306274000344000000000000001604916+130Pago Cuota Leasing Numero:00000000           C2023063000006
08870371109202306277300030000000000000000085870+994TRASPASO DE:ASIABOX SPA                      A2023063000006
08870371109202306285800444000000000000000081185+000PAGO:PROVEEDORES 0608050000                  A2023063000006
08870371109202306301000018000000000000001464266+994TRASPASO A:Ruth Noemi Salas Anabal           C2023063000006
08870371109202306305800444000000000000000863690+000PAGO:PROVEEDORES 0760988200                  A2023063000006
08870371109202306305800444000000000000000852957+000PAGO:PROVEEDORES 0816756006                  A2023063000006
