0887037110920230228980000000        00000000000+887RETENCIONES +1 DIA                           S2023022800002
0887037110920230228970000000        00000000000+887RETENCIONES 1 DIA                            S2023022800002
0887037110920230228990000000        00002389908+887SALDO CONTABLE                               S2023022800002
08870371109202302013812034000000000000000378050+000Pago Instituciones Previsionales             C2023022800002
08870371109202302025600690000000000000000923297+994APP-TRASPASO DE:INVERSIONES FENIX            A2023022800002
08870371109202302031000018000000000000001469985+994TRASPASO A:Ruth Noemi Salas Anabal           C2023022800002
08870371109202302031000019000000000000000119000+994TRASPASO A:Transportes Guerrero Hu           C2023022800002
08870371109202302031000019000000000000000059500+994TRASPASO A:Transportes Guerrero Hu           C2023022800002
08870371109202302105800444000000000000001478822+000PAGO:PROVEEDORES 0760988200                  A2023022800002
08870371109202302131000018000000000000000793844+994TRASPASO A:General Alquiler de Maq           C2023022800002
08870371109202302131000018000000000000001353739+994TRASPASO A:General Alquiler de Maq           C2023022800002
08870371109202302163812041000000000000000967357+000PAGO EN SII.CL*                              C2023022800002
08870371109202302175800444000000000000001995754+000PAGO:PROVEEDORES 0760988200                  A2023022800002
08870371109202302175800444000000000000000968985+000PAGO:PROVEEDORES 0764496213                  A2023022800002
08870371109202302214000344000000000000001491210+130Pago Cuota Leasing Numero:00000000           C2023022800002
08870371109202302231000019000000000000000059500+994TRASPASO A:Transportes Guerrero Hu           C2023022800002
08870371109202302241000018000000000000001360548+994TRASPASO A:General Alquiler de Maq           C2023022800002
08870371109202302241000018000000000000000664877+994TRASPASO A:General Alquiler de Maq           C2023022800002
08870371109202302241000018000000000000001088063+994TRASPASO A:General Alquiler de Maq           C2023022800002
08870371109202302271000018000000000000000165767+994TRASPASO A:General Alquiler de Maq           C2023022800002
08870371109202302271000018000000000000000156723+994TRASPASO A:General Alquiler de Maq           C2023022800002
08870371109202302281000019000000000000000120604+994TRASPASO A:Bodegas San Francisco L           C2023022800002
