0887037110920231229980000000        00000000000+887RETENCIONES +1 DIA                           S2023122900012
0887037110920231229970000000        00000000000+887RETENCIONES 1 DIA                            S2023122900012
0887037110920231229990000000        00000122074+887SALDO CONTABLE                               S2023122900012
08870371109202312011000018000000000000001000000+994TRASPASO A:Patricio Rocco Inves?ub           C2023122900012
08870371109202312015600092000000000000001106347+994TRASPASO DE:Inversiones Fenix Serv           A2023122900012
08870371109202312061000018000000000000000422450+994TRASPASO A:General Alquiler de Maq           C2023122900012
08870371109202312061000019000000000000000071400+994TRASPASO A:General Repair Spa                C2023122900012
08870371109202312061000019000000000000000142800+994TRASPASO A:General Repair Spa                C2023122900012
08870371109202312061000019000000000000000101713+994TRASPASO A:Bodegas San Francisco L           C2023122900012
08870371109202312066100000000210490000000779432+195DEPOSITO CON CHEQUE MISMO BANCO              A2023122900012
08870371109202312113812041000000000000000027794+000PAGO EN SII.CL*                              C2023122900012
08870371109202312141800018000000000000000081915+000PAGO AUTOMATICO TARJETA DE CREDITO           C2023122900012
08870371109202312155800444000000000000000071448+000PAGO:PROVEEDORES 0764496213                  A2023122900012
08870371109202312155800444000000000000000866036+000PAGO:PROVEEDORES 0816756006                  A2023122900012
08870371109202312155800444000000000000007112222+000PAGO:PROVEEDORES 0760988200                  A2023122900012
08870371109202312181000018000000000000000591131+994TRASPASO A:Ahern Chile Spa                   C2023122900012
08870371109202312181000018000000000000000249900+994TRASPASO A:Servicios de Grua Crist           C2023122900012
08870371109202312181000018000000000000000138993+994TRASPASO A:Ahern Chile Spa                   C2023122900012
08870371109202312191000018000000000000000160000+994TRASPASO A:Ruth Noemi Salas Anabal           C2023122900012
08870371109202312214000344000000000000001491210+130Pago Cuota Leasing:Cuota 16 de 31            C2023122900012
08870371109202312224000344000000000000000494464+130Pago Cuota Leasing:Cuota 5 de 49             C2023122900012
08870371109202312274000344000000000000001604916+130Pago Cuota Leasing:Cuota 9 de 49             C2023122900012
08870371109202312281000018000000000000000214200+994TRASPASO A:Servicios de Grua Crist           C2023122900012
08870371109202312281000018000000000000000178500+994TRASPASO A:Servicios de Grua Crist           C2023122900012
08870371109202312283000011000000000000007283779+887PAGO DE CREDITO EN CUOTAS                    C2023122900012
08870371109202312285600092000000000000000600000+994TRASPASO DE:Jose Miguel Parro                A2023122900012
08870371109202312291000018000000000000001475901+994TRASPASO A:Ruth Noemi Salas Anabal           C2023122900012
08870371109202312295800444000000000000000636566+000PAGO:PROVEEDORES 0760988200                  A2023122900012
08870371109202312297300030000000000000000800000+994TRASPASO DE:ECOX SPA                         A2023122900012
