0887037110920230929980000000        00000000000+887RETENCIONES +1 DIA                           S2023092900009
0887037110920230929970000000        00000000000+887RETENCIONES 1 DIA                            S2023092900009
0887037110920230929990000000        00005136479+887SALDO CONTABLE                               S2023092900009
08870371109202309011000018000000000000001500000+994TRASPASO A:Ruth Noemi Salas Anabal           C2023092900009
08870371109202309011000018000000000000000039790+994TRASPASO A:Ruth Noemi Salas Anabal           C2023092900009
08870371109202309015600092000000000000001900000+994TRASPASO DE:Inversiones Jopa Limit           A2023092900009
08870371109202309017300030000000000000000128969+994TRASPASO DE:MAX GREDIG SERVICIOS D           A2023092900009
08870371109202309073812034000000000000000400566+000Pago Instituciones Previsionales             C2023092900009
08870371109202309081000019000000000000000093817+994TRASPASO A:Bodegas San Francisco L           C2023092900009
08870371109202309083812041000000000000000026302+000PAGO EN SII.CL*                              C2023092900009
08870371109202309085800444000000000000000458186+000PAGO:PROVEEDORES 0760988200                  A2023092900009
08870371109202309087300030000000000000000772221+994TRASPASO DE:SERVICIOS INTEGRALES L           A2023092900009
08870371109202309111000018000000000000000200710+994TRASPASO A:Ahern Chile Spa                   C2023092900009
08870371109202309111000018000000000000000101150+994TRASPASO A:Servicios de Grua Crist           C2023092900009
08870371109202309111000019000000000000000142800+994TRASPASO A:General Repair Spa                C2023092900009
08870371109202309131000018000000000000000160000+994TRASPASO A:Ruth Noemi Salas Anabal           C2023092900009
08870371109202309131800018000000000000000218815+000PAGO AUTOMATICO TARJETA DE CREDITO           C2023092900009
08870371109202309135600092000000000000001111209+994TRASPASO DE:Inversiones Fenix Serv           A2023092900009
08870371109202309147300030000000000000000258004+994TRASPASO DE:MAX GREDIG SERVICIOS D           A2023092900009
08870371109202309155800444000000000000000858022+000PAGO:PROVEEDORES 0816756006                  A2023092900009
08870371109202309155800444000000000000004421226+000PAGO:PROVEEDORES 0760988200                  A2023092900009
08870371109202309155800444000000000000000724136+000PAGO:PROVEEDORES 0764496213                  A2023092900009
08870371109202309214000344000000000000001491210+130Pago Cuota Leasing:Cuota 13 de 31            C2023092900009
08870371109202309224000344000000000000000494464+130Pago Cuota Leasing:Cuota 2 de 49             C2023092900009
08870371109202309225800444000000000000000458186+000PAGO:PROVEEDORES 0760988200                  A2023092900009
08870371109202309274000344000000000000001604916+130Pago Cuota Leasing:Cuota 6 de 49             C2023092900009
